:100000000C9485010C9440110C946D110C94AD016D
:100010000C94AD010C94AD010C94AD010C94AD01A8
:100020000C94AD010C94AD010C94AD010C94AD0198
:100030000C94AD010C94AD010C94AD010C94AD0188
:100040000C94C9020C94AD010C94FC040C943F0573
:100050000C94AD010C94AD010C94AD010C94AD0168
:100060000C94AD010C94AD010000000700020100EA
:100070000003040600000000000000000102040864
:100080001020408001020408102001020408102002
:10009000040404040404040402020202020203032E
:1000A00003030303000000002300260029000000D2
:1000B0000000250028002B0000000000240027007D
:1000C0002A004E6F206572726F7220666F756E64C3
:1000D0002E0043616E2774206F70656E20726F6F03
:1000E00074206469726563746F72792E00496E764C
:1000F000616C696420666F726D61742C2072656634
:100100006F726D61742053442E004E6F20636172D4
:10011000642C2077726F6E67206368697020736546
:100120006C6563742070696E2C206F722053504987
:100130002070726F626C656D3F0043616E277420A2
:1001400061636365737320534420636172642E207E
:10015000446F206E6F74207265666F726D61742ECD
:10016000006572726F723A20002C305800534420A0
:100170006572726F72436F64653A2030580068741C
:1001800074703A2F2F6D70666C6167612E676974A9
:100190006875622E636F6D2F537061726B66756E3A
:1001A0002D4D50332D506C617965722D5368696502
:1001B0006C642D41726475696E6F2D4C6962726159
:1001C00072792F2354726F75626C6573686F6F74E8
:1001D000696E6700496620796F75206765742074C1
:1001E000686973206572726F722C20796F75206C4C
:1001F000696B656C7920646F206E6F74206861761E
:100200006520612073642E626567696E20696E20C7
:10021000746865206D61696E20736B657463682C0A
:10022000205365652054726F75626C652053686F4A
:100230006F74696E6720477569646521000000006E
:10024000000000000000000000200020002000202E
:1002500000080008004000300028003000100010A6
:10026000006000380030003800180018008000409E
:10027000003800400020002000A000500040005046
:100280000028002800C000600050006000300030EE
:1002900000E000700060007000380038000001804D
:1002A0000070008000400040002001A0008000900D
:1002B00000500050004001C000A000A000600045B8
:1002C000006001E000C000B000700070008001001C
:1002D00001E000C00080008000A00140010001E0BA
:1002E0000090009000C001800140010001A000A02A
:1002F000007C3C3E5E2B3D3F2F5B5D3B2C2A225C0D
:100300000000BD02FB050111C31111241FBECFEF78
:10031000D8E0DEBFCDBF11E0A0E0B1E0ECE9F9E349
:1003200002C005900D92A639B107D9F714E0A6E9ED
:10033000B1E001C01D92AD3EB107E1F713E0CAE0A4
:10034000D3E004C02297FE010E94C81CC230D1072E
:10035000C9F70E9451060C944D1C0C9400000F9399
:100360001F93CF93DF9383E10E943B04EC018091C4
:10037000060190910701C817D90751F00E94130395
:10038000609398017093990180939A0190939B01D7
:100390000E941303009198011091990120919A01F4
:1003A00030919B01601B710B820B930B0091080134
:1003B0001091090120910A0130910B0106171707CE
:1003C0002807390770F58091960190919701C81719
:1003D000D90739F1D0939701C0939601209709F579
:1003E0006EE071E086EE91E00E94F0068EE991E009
:1003F0000E94FF0C882321F08EE991E00E94320ECA
:1004000020E030E0A90165E171E08EE991E00E9411
:100410006B0F882331F061E271E086EE91E00E947B
:10042000F006D0930701C093060110929D018EE063
:100430000E943B04892B29F480919D018F5F80935A
:100440009D018FE00E943B04892B29F480919D013E
:100450008E5F80939D0180E10E943B04892B29F4EB
:1004600080919D018C5F80939D0181E10E943B04FE
:10047000892B29F480919D01885F80939D01909143
:100480009D0180919C01981739F168E271E086EE38
:1004900091E00E94C106C4E0D0E008E010E0809145
:1004A0009D0190E080239123892B11F061E301C02D
:1004B00060E386EE91E00E94C306169507952197AA
:1004C000209769F763E171E086EE91E00E94F00603
:1004D00080919D0180939C01DF91CF911F910F919D
:1004E000089544E069E085EA91E00E94E307811104
:1004F00004C085EA91E00E94E10840E06AE271E010
:1005000085EA91E00E940B08811106C06CE271E05F
:1005100085EA91E00C94B60808958EE991E00E9476
:10052000821040E060E08EE991E00E94C40E61E03C
:1005300070E08EE991E00C94EC1060E08EE00E9497
:10054000CC0360E08FE00E94CC0360E080E10E9479
:10055000CC0360E081E10E94CC0362E083E10E9471
:10056000CC0340E855E260E070E086EE91E00E9446
:100570007A050E9471020C948D0289E18093A60194
:100580001092A9011092BC011092C3011092C501F2
:1005900008951F920F920FB60F9211242F933F933D
:1005A0008F939F93AF93BF938091DE019091DF0172
:1005B000A091E001B091E1013091DD0123E0230F32
:1005C0002D3720F40196A11DB11D05C026E8230F8B
:1005D0000296A11DB11D2093DD018093DE01909351
:1005E000DF01A093E001B093E1018091E2019091DD
:1005F000E301A091E401B091E5010196A11DB11DB7
:100600008093E2019093E301A093E401B093E501AC
:10061000BF91AF919F918F913F912F910F900FBEFE
:100620000F901F9018952FB7F8946091DE0170918C
:10063000DF018091E0019091E1012FBF08953FB764
:10064000F8948091E2019091E301A091E401B091CE
:10065000E50126B5A89B05C02F3F19F00196A11D05
:10066000B11D3FBF6627782F892F9A2F620F711D0A
:10067000811D911D42E0660F771F881F991F4A95C3
:10068000D1F70895CF92DF92EF92FF92CF93DF934D
:100690006B017C010E941F03EB01C114D104E10432
:1006A000F10479F00E941F036C1B7D0B683E7340C0
:1006B000A0F381E0C81AD108E108F108C851DC4F65
:1006C000ECCFDF91CF91FF90EF90DF90CF90089526
:1006D000789484B5826084BD84B5816084BD85B51D
:1006E000826085BD85B5816085BDEEE6F0E08081E4
:1006F00081608083E1E8F0E0108280818260808305
:10070000808181608083E0E8F0E080818160808387
:10071000E1EBF0E0808184608083E0EBF0E08081B9
:1007200081608083EAE7F0E080818460808380815B
:100730008260808380818160808380818068808303
:100740001092C1000895833081F028F4813099F02F
:100750008230A1F008958630A9F08730B9F0843056
:10076000D1F4809180008F7D03C0809180008F77CD
:1007700080938000089584B58F7702C084B58F7D03
:1007800084BD08958091B0008F7703C08091B00040
:100790008F7D8093B0000895CF93DF9390E0FC01AC
:1007A000E458FF4F2491FC01E057FF4F84918823C8
:1007B00049F190E0880F991FFC01E854FF4FA59183
:1007C000B49182559F4FFC01C591D4919FB761119F
:1007D00008C0F8948C91209582238C938881822381
:1007E0000AC0623051F4F8948C91322F30958323F3
:1007F0008C938881822B888304C0F8948C91822BFF
:100800008C939FBFDF91CF9108950F931F93CF9348
:10081000DF931F92CDB7DEB7282F30E0F901E859FA
:10082000FF4F8491F901E458FF4F1491F901E0570B
:10083000FF4F04910023C9F0882321F069830E94AF
:10084000A3036981E02FF0E0EE0FFF1FE255FF4F99
:10085000A591B4919FB7F8948C91611103C0109544
:10086000812301C0812B8C939FBF0F90DF91CF918B
:100870001F910F910895CF93DF93282F30E0F90156
:10088000E859FF4F8491F901E458FF4FD491F901E1
:10089000E057FF4FC491CC2391F081110E94A30334
:1008A000EC2FF0E0EE0FFF1FEC55FF4FA591B49138
:1008B0002C912D2381E090E021F480E002C080E0C3
:1008C00090E0DF91CF910895FC0124853585F901F1
:1008D000E05CFF4F80819181F901EE5BFF4F208149
:1008E0003181821B930B8F7399270895FC018485B6
:1008F0009585FC01E05CFF4F40815181FC01EE5B7E
:10090000FF4F208131814217530741F00190F08160
:10091000E02DE80FF91F808190E008958FEF9FEFA1
:100920000895FC0184859585FC01E05CFF4F4081C2
:100930005181FC01EE5BFF4F20813181421753074B
:1009400079F0A081B181A80FB91F8C9120813181EC
:100950002F5F3F4F2F7333273183208390E008951B
:100960008FEF9FEF0895FC0181A1882329F0A489CE
:10097000B5898C9186FFFBCF11A20895CF93DF93A9
:10098000FC0126853785D901A05CBF4F8D919C91D4
:10099000119701968F739927E901CE5BDF4F48814C
:1009A000598184179507D9F30D90BC91A02DA20F02
:1009B000B31F6C93A685B785A05CBF4F11969C931F
:1009C0008E93A689B7892C9181E090E0078C02C0B4
:1009D000880F991F0A94E2F7282B2C9381E081A3BA
:1009E0000488F589E02D80818064808381E090E037
:1009F000DF91CF91089508951F920F920FB60F9235
:100A000011242F933F934F938F939F93EF93FF93D3
:100A10008091C00082FD1CC04091C60080918C0274
:100A200090918D0201968F73992720918E023091BB
:100A30008F028217930771F0E0918C02F0918D0282
:100A4000E45BFD4F408390938D0280938C0202C043
:100A50008091C600FF91EF919F918F914F913F91AF
:100A60002F910F900FBE0F901F90189586EE91E07A
:100A70000E946404892B11F00C94FB0408951F92CA
:100A80000F920FB60F9211242F933F938F939F9342
:100A9000EF93FF93209148023091490280914A02DE
:100AA00090914B022817390731F48091C1008F7D56
:100AB0008093C10014C0E0914A02F0914B02E85FBC
:100AC000FD4F208180914A0290914B0201968F73D5
:100AD000992790934B0280934A022093C600FF917E
:100AE000EF919F918F913F912F910F900FBE0F909B
:100AF0001F901895CF92DF92EF92FF92CF93DF93E2
:100B0000EC016A017B01411581EE58076105710511
:100B1000F9F0EC89FD8981E090E008A002C0880F1F
:100B2000991F0A94E2F7808360E079E08DE390E01A
:100B3000A70196010E94951C2150310941095109D4
:100B40005695479537952795211580E1380798F0F8
:100B5000EC89FD89108260E874E88EE190E0A701DD
:100B600096010E94951C2150310941095109569561
:100B7000479537952795E889F9893083EA89FB8974
:100B8000208319A2EE89FF89408181E090E09C01D9
:100B90000C8C02C0220F331F0A94E2F7422B4083D1
:100BA000EE89FF8940819C010D8C02C0220F331F0A
:100BB0000A94E2F7422B4083EE89FF8940819C0131
:100BC0000E8C02C0220F331F0A94E2F7422B40839F
:100BD000EE89FF8920810F8C02C0880F991F0A942B
:100BE000E2F7809582238083DF91CF91FF90EF9091
:100BF000DF90CF9008951092E9011092E80188EEFD
:100C000093E0A0E0B0E08093EA019093EB01A09321
:100C1000EC01B093ED0189E391E09093E7018093BB
:100C2000E6018CE492E09093F3018093F20188E076
:100C300092E09093F5018093F40185EC90E090931D
:100C4000F7018093F60184EC90E09093F901809392
:100C5000F80180EC90E09093FB018093FA0181EC25
:100C600090E09093FD018093FC0182EC90E09093E2
:100C7000FF018093FE0186EC90E090930102809347
:100C8000000284E08093020283E08093030287E005
:100C90008093040285E08093050281E08093060240
:100CA00008950E9468030E949D02C6E3D5E00E9459
:100CB000AF012097E1F30E943605F9CFCF92DF9282
:100CC000EF92FF920F931F93CF93DF936C017A0102
:100CD000EB01E60EF71E00E010E0CE15DF0561F037
:100CE0006991D601ED91FC910190F081E02DC60152
:100CF0000995080F191FF1CFC801DF91CF911F91FE
:100D00000F91FF90EF90DF90CF90089561157105DE
:100D100081F0DB010D900020E9F7AD014150510950
:100D2000461B570BDC01ED91FC910280F381E02D15
:100D3000099480E090E00895EF92FF920F931F9343
:100D4000CF93DF938C01FB01C0E0D0E064917F0181
:100D50008FEFE81AF80A662361F0D801ED91FC9153
:100D60000190F081E02DC8010995C80FD91FF70146
:100D7000EDCFCE01DF91CF911F910F91FF90EF90BA
:100D800008950C948606DC01ED91FC910190F081B0
:100D9000E02D09940F931F93CF93DF93EC016DE047
:100DA0000E94C3068C016AE0CE010E94C306800F38
:100DB000911FDF91CF911F910F9108950F931F9372
:100DC000CF93DF93EC010E949C068C01CE010E9420
:100DD000CA06800F911FDF91CF911F910F91089547
:100DE0000F931F93CF93DF93EC010E9486068C0133
:100DF000CE010E94CA06800F911FDF91CF911F91F3
:100E00000F9108958F929F92AF92BF92CF92DF92EF
:100E1000EF92FF920F931F93CF93DF93CDB7DEB77F
:100E2000A1970FB6F894DEBF0FBECDBF7C01C42ED4
:100E3000E52FCB01D22E19A221E02D1510F02AE0CA
:100E4000D22E8E010F5D1F4F8D2C912CA12CB12C19
:100E50006C2D7E2FA50194010E94951C8C2DD29E95
:100E600080191124015011098A3014F4805D01C0E9
:100E7000895CF8018083211531054105510521F078
:100E8000C22EE32FCA01E4CFB801C7010E94860633
:100E9000A1960FB6F894DEBF0FBECDBFDF91CF9104
:100EA0001F910F91FF90EF90DF90CF90BF90AF9088
:100EB0009F908F900895CF92DF92EF92FF920F93C1
:100EC0001F93CF93DF93EC016A017B01211531055C
:100ED00079F4E881F9810190F081E02D642FDF91B0
:100EE000CF911F910F91FF90EF90DF90CF900994D9
:100EF0002A303105E9F477FF1AC06DE20E94C3067B
:100F00008C0144275527BA014C195D096E097F09E8
:100F10002AE0CE010E940207800F911FDF91CF913E
:100F20001F910F91FF90EF90DF90CF9008952AE0EE
:100F3000B701A601CE01DF91CF911F910F91FF90D4
:100F4000EF90DF90CF900C9402079A01AB016627D7
:100F500057FD6095762F0C945B070F931F93CF93EB
:100F6000DF93EC019A01AB01662757FD6095762F60
:100F70000E945B078C01CE010E94CA06800F911F60
:100F8000DF91CF911F910F9108950F931F93CF93EE
:100F9000DF938C01EC016E96662321F0D093EC0474
:100FA000C093EB04F80180A1882319F0CE010E94C0
:100FB0009A17B8016B5F7F4FCE01DF91CF911F91E0
:100FC0000F910C9406170F931F93CF93DF93EC01AF
:100FD0000E94A9128823C9F08E010B5F1F4F41E0C8
:100FE000BE01C8010E94EE0B882341F061E0CE01F2
:100FF000DF91CF911F910F910C94C50740E0BE0186
:10100000C8010E94EE0B8111F1CF80E0DF91CF91FA
:101010001F910F910895FF920F931F93CF93DF932A
:10102000CDB7DEB76A970FB6F894DEBF0FBECDBF5F
:10103000FB01F42E19821B8220812F3239F4218189
:10104000211104C0642F0E94C5071FC08C01025EDD
:101050001F4F21E0AF01B801CE0101960E94BC19DB
:10106000882399F09B81923078F09AE1FE013196C5
:10107000D80101900D929A95E1F7FF2031F010937D
:10108000EC040093EB0401C080E06A960FB6F8947C
:10109000DEBF0FBECDBFDF91CF911F910F91FF90AB
:1010A0000895CF93DF93EC01FE016491662369F00C
:1010B00080910C0190910D01DC01ED91FC9101906A
:1010C000F081E02D09952196EFCFDF91CF91089522
:1010D0000E94510880910C0190910D010C94CA0658
:1010E000CF93DF93EC0189818823F1F08DE691E0C5
:1010F0000E945108698170E040E150E080910C014C
:1011000090910D010E94A50789E691E00E94510887
:101110006B8170E040E150E080910C0190910D01F5
:10112000DF91CF910C94AD07DF91CF9108950F938C
:101130001F93CF93DF9300D0CDB7DEB78C0181E64C
:1011400091E069837A830E94510869817A81809154
:101150000C0190910D010E94F006C8010F900F90B4
:10116000DF91CF911F910F910C9470080E94970806
:10117000FFCFCF93DF93EC018981882381F08AE34D
:1011800091E00E9468088981813021F48AE091E031
:101190000E946808CE01DF91CF910C9470088F896E
:1011A000811103C08DEE90E008C088A1811103C0B9
:1011B00082ED90E002C082EC90E0DF91CF910C9440
:1011C00068080E94B908FFCF0F931F93CF938091B7
:1011D000920280FF42C0409193025091940260912C
:1011E00095027091960227E932E0809190029091E9
:1011F00091020E94C013C82F811102C0C0E02EC00E
:101200008091920281FD06C0809192028E7F809330
:10121000920224C080919B048230B0F340919704E5
:10122000509198046091990470919A0400919302EE
:10123000109194022091950230919602400F511F17
:10124000621F731F27E932E0809190029091910212
:101250000E94C0138111D8CFD1CFC1E08C2FCF9184
:101260001F910F910895CF92DF92EF92FF92CF934B
:101270006B017C01C42F8091930290919402A09104
:101280009502B09196028C159D05AE05BF0509F13A
:101290000E94E408811103C080E090E022C0C2FFF8
:1012A0000BC010929202C0929302D0929402E092EC
:1012B0009502F09296020DC027E932E0B701A6012F
:1012C00080919002909191020E9459138111E9CF6F
:1012D000E3CFC370809192028C2B8093920287E9B6
:1012E00092E0CF91FF90EF90DF90CF9008950C9413
:1012F000E4088FEF9FEFDC018093930290939402B8
:10130000A0939502B09396021092920208950F93C3
:101310001F93FC014250510961097109A481B0E099
:101320009A01AB010E948A1C0285138524853585AC
:10133000600F711F821F931F1F910F9108958F924D
:101340009F92AF92BF92CF92DF92EF92FF920F9354
:101350001F93CF93DF93EC016A017B018901423037
:1013600051056105710508F455C08D819E81AF81DD
:10137000B8850196A11DB11D84179507A607B7076B
:1013800008F448C08A89803129F499278F2D7E2D51
:101390006D2D0BC08032F1F5CB01BA0147E0969577
:1013A0008795779567954A95D1F78E849F84A8880D
:1013B000B988680D791D8A1D9B1D42E00E94330982
:1013C000009741F12A89203169F4DD24EE24FF24BD
:1013D000F601EE0FFF1FE80FF91F80819181A0E059
:1013E000B0E011C0E894C7F8DD24EE24FF24F60134
:1013F000EE0FFF1FEE0FFF1FE80FF91F8081918195
:10140000A281B381BF70F80180839183A283B383EB
:1014100081E001C080E0DF91CF911F910F91FF909B
:10142000EF90DF90CF90BF90AF909F908F900895F6
:101430008F929F92AF92BF92CF92DF92EF92FF92E4
:101440000F931F93CF93DF93EC016A017B01480157
:101450005901423051056105710508F44EC04D81B6
:101460005E816F8178854F5F5F4F6F4F7F4F4C1567
:101470005D056E057F0508F440C08A89803129F436
:1014800099278F2D7E2D6D2D0BC08032B1F5C701B0
:10149000B601E7E09695879577956795EA95D1F738
:1014A0000E851F8528893989600F711F821F931F40
:1014B00043E00E943309009701F12A89203159F451
:1014C000DD24EE24FF24F601EE0FFF1FE80FF91FC5
:1014D0009182808210C0E894C7F8DD24EE24FF24B6
:1014E000F601EE0FFF1FEE0FFF1FE80FF91F8082BE
:1014F0009182A282B38281E001C080E0DF91CF912E
:101500001F910F91FF90EF90DF90CF90BF90AF9021
:101510009F908F9008952F923F924F925F926F927B
:101520007F928F929F92AF92BF92CF92DF92EF9273
:10153000FF920F931F93CF93DF93CDB7DEB72F9713
:101540000FB6F894DEBF0FBECDBF1C014B875C8782
:101550006D877E873A872987DC0115960D911D914D
:101560002D913C9118970F5F1F4F2F4F3F4F0D83C9
:101570001E832F833887E985FA8580809180A28039
:10158000B38081149104A104B10439F0FFEF8F1AE4
:101590009F0AAF0ABF0A1F8607C0DC018D909D908D
:1015A000AD90BC9001E00F8775016401412C512C76
:1015B0003201F10185819681A781B08548165906CF
:1015C0006A067B0608F05FC00D811E812F81388579
:1015D0000C151D052E053F0550F4A2E0CA2ED12C96
:1015E000E12CF12CB2E08B2E912CA12CB12C9E0180
:1015F0002F5F3F4FB701A601C1010E949F098823B9
:1016000009F441C049815A816B817C81D701C601AF
:101610000196A11DB11D452B462B472B49F08C147B
:101620009D04AE04BF0409F01F864C015D010FC08C
:10163000AC01BD01481959096A097B090B851C8554
:101640002D853E85401751076207730741F01FEF54
:10165000411A510A610A710A6C017D01AACF0F85F6
:10166000002329F0F10180839183A283B3830FEFDC
:101670001FEF2FEF3FE0B701A601C1010E94180A3A
:101680008D83811114C01D8231C026013701F1E024
:101690004F1A51086108710897018601B301A20130
:1016A000C1010E94180A882371F3730162018C142E
:1016B0009D04AE04BF0448F3A985BA854D915D91A0
:1016C0006D917C91411551056105710539F4E985EC
:1016D000FA8580829182A282B38208C0950184013A
:1016E000C1010E94180A8111F2CFCDCF8D812F96B2
:1016F0000FB6F894DEBF0FBECDBFDF91CF911F9123
:101700000F91FF90EF90DF90CF90BF90AF909F90A0
:101710008F907F906F905F904F903F902F900895A3
:10172000AF92BF92CF92DF92EF92FF920F931F93EF
:10173000CF93DF9300D000D0CDB7DEB75C016A0154
:101740007B019E012F5F3F4FB701A601C5010E949B
:101750009F09811102C080E032C000E010E09801D2
:10176000B701A601C5010E94180A8823A1F3F5015B
:1017700080819181A281B381C816D906EA06FB0651
:1017800020F4C082D182E282F382C980DA80EB80C9
:10179000FC80F5018289803149F481E0F8EFCF16B1
:1017A000FFEFDF06E104F10450F4CBCF81E098EFC6
:1017B000C9169FEFD906E9069FE0F90610F20F90CF
:1017C0000F900F900F90DF91CF911F910F91FF908D
:1017D000EF90DF90CF90BF90AF9008958F929F923F
:1017E000AF92BF92CF92DF92EF92FF920F931F932F
:1017F000CF93DF93EC01142F7093910260939002CA
:101800001A8A82E090E0A0E0B0E088839983AA83FE
:10181000BB83109292028FEF9FEFDC0180939302C3
:1018200090939402A0939502B0939602442311F1F1
:10183000453008F0BDC040E060E070E0CB010E94A0
:101840003309009709F4B4C0FC0120E1129FE00DB8
:10185000F11D1124E255FE4F80818F7709F0A8C059
:10186000C084D184E284F384C114D104E104F1047E
:1018700021F49EC0C12CD12C760140E0C701B601F5
:101880000E943309FC01009709F492C08385948576
:101890008115924009F08CC02089222309F488C068
:1018A00086859785892B09F483C020939B04458501
:1018B0004C83198688E090E021E0421749F0220F1E
:1018C0000197009709F474C039853F5F3987F5CFD8
:1018D000268937892115310519F040E050E004C010
:1018E00024A135A146A157A12093970430939804D1
:1018F0004093990450939A04868597854601570131
:10190000880E991EA11CB11C8E869F86A88AB98A52
:10191000018912891C8B0B8BA089B0E00E948A1C64
:10192000680D791D8A1D9B1D6D8B7E8B8F8B988F0B
:1019300025E0000F111F2A95E1F701501E4F012FDE
:1019400011270695DC01CB01800F911FA11DB11D50
:101950008A879B87AC87BD87038914890115110588
:1019600019F020E030E004C000A111A122A133A1B0
:10197000B701A601481B590B6A0B7B0BDB01CA019F
:10198000800F911FA21FB31F098404C0B695A795AD
:10199000979587950A94D2F78D839E83AF83B887F6
:1019A000853F5FE09507A105B10520F48CE08A8BA7
:1019B00080E012C0853F9F4FA105B10510F480E182
:1019C00009C084A595A5A6A5B7A58D8B9E8BAF8BC9
:1019D000B88F80E28A8B81E0DF91CF911F910F91C8
:1019E000FF90EF90DF90CF90BF90AF909F908F903F
:1019F00008958EBD0DB407FEFDCF8EB5089588E025
:101A00000E943B04892B59F02091C0043091C104FD
:101A10002D7F81E02530310519F080E0089583E0C5
:101A200008950F931F93CF93DF93EC0118820FEF6C
:101A30001FEF86EC94E00E94E4158F3F910509F0BA
:101A400059C086EC94E00E94E4159C01207E332767
:101A5000203E310509F04EC09C0126703327211528
:101A6000310509F447C083FF09C02430310541F036
:101A70002230310509F03EC012E003C013E001C07E
:101A800011E086EC94E00E94E415992724E09595F6
:101A900087952A95E1F726E0289FF001299FF00D10
:101AA0001124E10FF11DEE0FFF1FE35CFD4F859147
:101AB000949186958695869588834091D00450911F
:101AC000D1046091D2047091D3044350510961094B
:101AD000710986EC94E00E94FB154091D00450916E
:101AE000D1046091D2047091D30449835A836B83EB
:101AF0007C8306C0015011090115110509F099CF29
:101B0000DF91CF911F910F91089581E00E949A116A
:101B100080E00E94A3118091BC040C94A8110E9443
:101B2000850D60E086E00C94050461E086E00C948D
:101B300005040E94850D60E087E00C94050461E0D7
:101B400087E00C9405048091C0049091C10405972E
:101B500039F443E050E06FE47EE080E00C94101133
:101B6000089580E00C943011DF92EF92FF920F9372
:101B70001F93CF93DF937C0186E09EE10E94B81013
:101B8000D82E97012D7F232B89F40E94990DC4E054
:101B9000D8E082E00E943B04892BD9F38D2D0E946E
:101BA000F90C21972097A9F70E949F0DC0E4D0E07F
:101BB00080E00E94D50FBC01686080E00E94CA0EE0
:101BC0000E94990D00E210E082E00E943B04892B04
:101BD000D9F38D2D0E94F90C015011090115110541
:101BE00099F70E949F0D80E00E94D50F83FD1FC0D2
:101BF00081E0E81AF10882E0E816F10458F50E9445
:101C0000990DC4E0D8E082E00E943B04892BD9F30F
:101C10008D2D0E94F90C21972097A9F7DF91CF9184
:101C20001F910F91FF90EF90DF900C949F0D2197E3
:101C3000209709F0BDCF80E00E94D50FBC01646001
:101C400080E0DF91CF911F910F91FF90EF90DF9097
:101C50000C94CA0EDF91CF911F910F91FF90EF90DE
:101C6000DF9008958091C0049091C1048D7F059705
:101C7000A9F488E00E943B04892B81F00E94B10DF9
:101C800084E090E09093C1048093C00486EC94E0DB
:101C90000E949A1781E090E00C94B40D0895CF93C0
:101CA000DF93789482E00E943B04892B59F140E253
:101CB00050E06CE974E086EC94E00E94DA14892B21
:101CC00091F486EC94E00E949A1784E090E090935F
:101CD000C1048093C0040E94B10D80E090E0DF91C8
:101CE000CF910C94B40DF8940E94990DCCE9D4E0F6
:101CF00089910E94F90C84E0CC3BD807C9F70E9477
:101D00009F0DCFCFDF91CF9108951F93CF93DF9396
:101D1000182FD62FC42F88E00E943B04892B81F115
:101D20002091C0043091C1042530310511F40E9486
:101D3000B10D82E00E943B04892BD9F30E948F0DE4
:101D400082E00E94F90C812F0E94F90C8D2F0E94D5
:101D5000F90C8C2F0E94F90C82E00E943B04892B25
:101D6000D9F30E94950D8091C0049091C10405970C
:101D700039F40E944F0EDF91CF911F910C94A30D67
:101D8000DF91CF911F910895FC01658346838BE01D
:101D90000C94850E462F672F0C94850EEF92FF92C0
:101DA0000F931F93CF93DF9300D000D000D0CDB717
:101DB000DEB77C018B0188E00E943B04892B11F483
:101DC00083E06FC0C7010E94FF0C811167C088E0EB
:101DD0000E943B04892BA1F341E0B80186EC94E01A
:101DE0000E94761A882309F45BC042E050E0BE01ED
:101DF0006D5F7F4F86EC94E00E94DA14892B09F422
:101E000047C042E050E0BE016F5F7F4F86EC94E038
:101E10000E94DA14892BE1F189819A8197FF2EC003
:101E20009F779A83898342E050E0BE016B5F7F4FCA
:101E300086EC94E00E94DA14892B51F189819A8111
:101E40009C01215031093A832983892B71F26D81DC
:101E50007E818B810E94CA0EF1CF42E050E0BE012C
:101E60006B5F7F4F86EC94E00E94DA14892B09F4B3
:101E7000BCCF6D817E818B810E94CA0E89819A813F
:101E80009C01215031093A832983892B31F7ADCF49
:101E900086EC94E00E949A1780E003C081E001C0C4
:101EA00082E026960FB6F894DEBF0FBECDBFDF915D
:101EB000CF911F910F91FF90EF900895CF93DF93F3
:101EC000EB01BC0187E00E94CA0EBE0186E0DF91F3
:101ED000CF910C94CA0ECF92DF92EF92FF920F93A4
:101EE0001F93CF93DF93EC018B0169017A010E946C
:101EF000FF0C81114CC088E00E943B04892B09F43F
:101F000048C041E0B80186EC94E00E94761A88232C
:101F100009F441C0C8010E94661C6CE571E00E9492
:101F2000701C892BE9F0B801CE010E94110DC1147B
:101F3000D104E104F104A1F0A881B0E0A701960169
:101F40000E948A1CAB01BC0189819A81AB81BC8152
:101F5000480F591F6A1F7B1F86EC94E00E94FB15F7
:101F600085E090E09093C1048093C00460E070E04D
:101F700084E00E94CA0E64E670E080E090E00E9477
:101F800042030E944F0E0E94A30D80E005C081E035
:101F900003C083E001C082E0DF91CF911F910F91D8
:101FA000FF90EF90DF90CF900895CF93DF93C82FED
:101FB00088E00E943B04892BE1F12091C00430911C
:101FC000C1042530310511F40E94B10D82E00E9458
:101FD0003B04892BD9F30E948F0D8091BE040E948F
:101FE000A81183E00E94F90C8C2F0E94F90C8FEF4E
:101FF0000E94F90CC82F82E00E943B04892BD9F380
:102000008FEF0E94F90CD82F82E00E943B04892BAD
:10201000D9F30E94950D2091C0043091C104253060
:10202000310521F40E944F0E0E94A30D8D2F9C2F8D
:1020300002C080E090E0DF91CF910895CF93DF93CD
:10204000EC0164E670E080E090E00E94420360E012
:1020500088E00E94050464E670E080E090E00E9461
:10206000420361E088E00E94050481E090E09093E3
:10207000BF048093BE049093BD048093BC046AE0C7
:1020800070E080E090E00E94420380E00E94D50F63
:102090008115984489F560E070E683E00E94CA0EDD
:1020A0001092BF041092BE0484E090E09093BD04AF
:1020B0008093BC046AE070E080E090E00E944203FC
:1020C00083E00E94D50F81159046C1F448E268E292
:1020D000CE010E94C40E60E671E0CE010E94CE0ED9
:1020E000811108C064E670E080E090E00E94420345
:1020F00080E005C086E003C084E001C085E0DF9198
:10210000CF910895CF93DF93EC018091BC018111B1
:102110000CC064ED71E086EE91E00E94DE066EE791
:1021200071E086EE91E00E94DE0660E082E00E94AF
:10213000CC0361E086E00E94CC0361E087E00E946E
:10214000CC0361E088E00E94CC030E94950D0E94C0
:102150009F0D60E088E00E94050481E090E090938C
:10216000C1048093C004CE01DF91CF910C941E1066
:102170000F931F93CF93DF93EC010E94850D809105
:10218000BE040E94A811BE0187E00E94CA0E86E02C
:102190000E94D50F8C01BE0187E00E94CA0E86E026
:1021A0000E94D50F0817190789F0BE0187E00E9429
:1021B000CA0E86E00E94D50F0817190739F0BE0134
:1021C00087E00E94CA0E86E00E94D50FC801DF9109
:1021D000CF911F910F910895CF93DF9300D0CDB78A
:1021E000DEB789E09EE169837A830E94B810698135
:1021F0007A8189E09EE10F900F90DF91CF910C944E
:102200005E0F1092C6041092C8041092C50410927A
:10221000C40481E991E09093C3048093C2040895BB
:102220008230E8F4E82FF0E0EE0FFF1FE052FB4FA2
:1022300071836083813041F0809169008C7F842BB1
:1022400080936900E89A089580916900440F551FB2
:10225000440F551F837F842B80936900E99A08956A
:10226000823068F4813011F0E89801C0E998E82FD5
:10227000F0E0EE0FFF1FE052FB4F11821082089535
:102280001F920F920FB60F9211242F933F934F93EB
:102290005F936F937F938F939F93AF93BF93EF93CE
:1022A000FF938091E0049091E104892B29F0E09163
:1022B000E004F091E1040995FF91EF91BF91AF9196
:1022C0009F918F917F916F915F914F913F912F914E
:1022D0000F900FBE0F901F9018951F920F920FB680
:1022E0000F9211242F933F934F935F936F937F939C
:1022F0008F939F93AF93BF93EF93FF938091E204EB
:102300009091E304892B29F0E091E204F091E30439
:102310000995FF91EF91BF91AF919F918F917F911F
:102320006F915F914F913F912F910F900FBE0F9042
:102330001F901895811103C08CB5806202C08CB5C6
:102340008F7D8CBD08959CB5937F982B9CBD08957F
:102350002CB5982F93702C7F922B9CBD9DB582FB42
:10236000882780F99E7F982B9DBD08958091C1009C
:1023700085FDFCCF8091C00085FFF8CF6093C6003B
:1023800081E090E008951092E7041092E60489E855
:1023900091E09093E5048093E40408958FEF8EBD5F
:1023A0000DB407FEFDCF8EB508958EBD0DB407FEAA
:1023B000FDCF089561E0FC0180810E9405048FEF4C
:1023C0000C94D511CF93DF93EC016A8188EE94E0F1
:1023D0000E94351C60E08881DF91CF910C94050448
:1023E000CF92DF92EF92FF920F931F93CF93DF93E1
:1023F000EC018B017A010E9413036B010E94CE1144
:102400008B838F3F49F40E9413036C197D096D3251
:102410007140A0F381E103C08E3F39F08FE08983E2
:10242000CE010E94DA1180E028C0E114F104E1F04D
:1024300081E0E81AF1088FEF8EBDF8012FEFCF0190
:10244000801B910B8E159F0538F40DB407FEFDCF50
:102450008EB52EBD8193F3CF0DB407FEFDCF8EB5A3
:10246000F801EE0DFF1D80831B820E94CE110E9499
:10247000CE11CE010E94DA1181E0DF91CF911F9140
:102480000F91FF90EF90DF90CF9008950F931F93DF
:10249000CF93DF93EB010E9413038B010E94CE11B7
:1024A0008F3F49F00E941303601B710B6C177D076F
:1024B000A8F380E001C081E0DF91CF911F910F91DF
:1024C0000895FF920F931F93CF93DF9300D000D016
:1024D000CDB7DEB78C01F62E29833A834B835C831C
:1024E0000E94E21168E572E0C8010E9446128F2D39
:1024F00080640E94D5118C810E94D5118B810E942D
:10250000D5118A810E94D51189810E94D511F110BF
:1025100002C085E901C087E80E94D5118CE0F8125D
:1025200002C00E94CE11F12C0E94CE11F8018383CB
:1025300087FF05C0FFEFFF1611F0F394F5CF0F9062
:102540000F900F900F90DF91CF911F910F91FF90FF
:102550000895BF92CF92DF92EF92FF920F931F9355
:10256000CF93DF93EC01B42E1C82198268830E9402
:1025700013038B0161E088810E94CC0361E08881B4
:102580000E94050488EE94E00E94211C80E48A8366
:1025900060E488EE94E00E94351C2AE0F22E8FEF72
:1025A0000E94D511FA94D9F720E030E0A90160E04B
:1025B000CE010E946112813049F00E941303601B1A
:1025C000710B613D774080F381E051C02AEA31E030
:1025D00040E050E068E0CE010E946112853011F4C5
:1025E00081E00AC094E0F92E0E94CE118B83FA9408
:1025F000D9F78A3A59F482E08C838C81823079F45D
:10260000C12CD12CE12C80E4F82E0CC00E941303C5
:10261000601B710B613D7740C8F282E028C0C12C7D
:10262000D12C760120E030E0A90167E3CE010E94C1
:102630006112A701960169E2CE010E94611288230E
:1026400049F00E941303601B710B613D774050F30A
:102650008AE00DC08C818230E9F420E030E0A901ED
:102660006AE3CE010E946112882339F088E08983F1
:10267000CE010E94DA1180E012C00E94CE11807C4F
:10268000803C11F483E08C830E94CE110E94CE1115
:102690000E94CE11CE010E94DA11BA8281E0DF9150
:1026A000CF911F910F91FF90EF90DF90CF90BF904F
:1026B00008950F931F93CF93DF93EC0189018C81D1
:1026C000833039F039E0440F551F661F771F3A9564
:1026D000D1F79A01AB0161E1CE010E946112811133
:1026E0000AC040E052E0B801CE01DF91CF911F91C6
:1026F0000F910C94F01184E08983CE010E94DA11CD
:1027000080E0DF91CF911F910F9108950F931F9358
:10271000CF93DF93EC01862F8A010E94D511F80137
:1027200080818EBD818122E030E00DB407FEFDCFB7
:102730008EBD2115F2E03F0739F0F801E20FF31FDB
:1027400080812F5F3F4FF1CF0DB407FEFDCF8FEF9C
:102750000E94D5118FEF0E94D5110E94CE118B835C
:102760008F71853039F083E18983CE010E94DA11BF
:1027700080E001C081E0DF91CF911F910F9108951A
:102780000F931F93CF93DF93EC0189018C818330EA
:1027900039F089E0440F551F661F771F8A95D1F7DE
:1027A0009A01AB0168E1CE010E946112882319F001
:1027B00086E089830CC0A8016EEFCE010E948613CB
:1027C000182F882321F0CE010E94DA1104C0CE0117
:1027D0000E94DA1110E0812FDF91CF911F910F91AC
:1027E0000895CF93DF93EC019C012A5F3F4F41E0B6
:1027F00050E060E070E08C819D810E948B0A88230C
:1028000099F04E895F89688D798D452B462B472B32
:1028100059F44E815F81688579854E8B5F8B688F17
:10282000798F998190689983DF91CF910895BF92B4
:10283000CF92DF92EF92FF920F931F93CF93DF938C
:10284000EC018A899B89AC89BD89803E9F4FAF414D
:10285000B105A8F4CE010E94F113882381F04E81C6
:102860005F81688579858C819D810E9487096B01D4
:102870007C0145E00E9433098C01009719F480E047
:1028800090E037C080E092E0F8019C011192215065
:102890003040E1F7BB24B394EC81FD818481B8160C
:1028A00088F49801B701A6014B0D511D611D711DE2
:1028B00080919002909191020E94C0138823F9F2B6
:1028C000B394EACF90E0A0E0B0E029E0880F991F30
:1028D000AA1FBB1F2A95D1F74A895B896C897D891C
:1028E000480F591F6A1F7B1F4A8B5B8B6C8B7D8B3C
:1028F000C801DF91CF911F910F91FF90EF90DF9072
:10290000CF90BF900895CF93DF93EC01462F6E8553
:102910007F85888999890E943309009739F02B8136
:1029200030E2239F800D911D112402C080E090E0D1
:10293000DF91CF910895FB012BE030E231932150DC
:10294000E9F7DC0190E027E03A2FEB2F8D91811120
:102950000AC0DA013C931196EC9381E0FB0190816F
:10296000903239F525C08F32A1F38E3219F0E1EFA4
:10297000F2E008C02A30E1F098E02AE0E5CF319695
:102980003817B1F034913111FACF291788F03FEDA3
:10299000380F3E3568F431E0390FFB01E90FF11DC6
:1029A0009FE9980F9A3108F480528083932FCCCFFF
:1029B00080E008952F923F924F925F926F927F92A4
:1029C0008F929F92AF92BF92CF92DF92EF92FF923F
:1029D0000F931F93CF93DF9300D000D0CDB7DEB716
:1029E0009C838B836B017A01FC018281811103C07E
:1029F0008FEF9FEFD2C0EB81FC81818180FFF8CF08
:102A0000EB81FC814289538964897589828593852C
:102A1000A485B5854701A12CB12C8A019B01081B17
:102A2000190B2A0B3B0B80169106A206B30618F071
:102A30007A01E81AF90A87018B819C8106969A83AC
:102A40008983812CF2E09F2E0115110509F46BC0DA
:102A5000EB81FC8142855385648575855A01F1E0DF
:102A6000BF22EB81FC8184819581FC0174801A0175
:102A70002B01E9E05694479437942794EA95D1F7CF
:102A8000EB81FC812281223051F4FC016589768939
:102A90008789908D620D731D841D951D2FC07A94BA
:102AA0007220A114B104E1F471101AC0EB81FC8111
:102AB000452B462B472B49F486899789A08DB18DEC
:102AC00086839783A087B1870BC046815781608535
:102AD000718529813A810E949F09882309F488CF52
:102AE000EB81FC8146815781608571858481958168
:102AF0000E948709670D711D811D911DA114B104EC
:102B0000A1F40115F2E01F0780F04090930250906D
:102B10009402609095027090960264157505860582
:102B20009705C9F402C0C70138C094012A193B09AE
:102B300038012017310708F4390140E00E943309B9
:102B4000009709F455CFBC016A0D7B1DA301C60196
:102B50000E945D1C0FC09601AB01BC0180919002E8
:102B6000909191020E945913882309F441CF612C5E
:102B700032E0732EC60CD71CEB81FC8182859385D5
:102B8000A485B585860D971DA11DB11D82879387EC
:102B9000A487B5870619170957CF0F900F900F908C
:102BA0000F90DF91CF911F910F91FF90EF90DF90E9
:102BB000CF90BF90AF909F908F907F906F905F90DD
:102BC0004F903F902F900895CF93DF931F92CDB7F2
:102BD000DEB741E050E0BE016F5F7F4F0E94DA1424
:102BE000019719F4898190E002C08FEF9FEF0F9059
:102BF000DF91CF9108954F925F926F927F92AF9243
:102C0000BF92CF92DF92EF92FF920F931F93CF93D9
:102C1000DF93EC016A017B012A81222349F08A8932
:102C20009B89AC89BD8984179507A607B70710F45F
:102C300080E06CC0223009F464C0C114D104E10406
:102C4000F10449F41E821F82188619861A861B8693
:102C50001C861D865AC08A859B85AC85BD85EC8106
:102C6000FD81E185F0E03996AC01BD01415051098B
:102C7000610971090E2E04C07695679557954795A1
:102C80000A94D2F7970186010150110921093109EF
:102C900004C03695279517950795EA95D2F704173E
:102CA00015072607370720F0892B8A2B8B2B49F431
:102CB0008E899F89A88DB98D8E839F83A887B987B8
:102CC00004C0041B150B260B370B280139015E01CC
:102CD00086E0A80EB11C411451046104710489F00E
:102CE0004E815F816885798595018C819D810E94E7
:102CF0009F0991E0491A5108610871088111EBCFD1
:102D000005C0CA86DB86EC86FD8681E0DF91CF9127
:102D10001F910F91FF90EF90DF90CF90BF90AF90F9
:102D20007F906F905F904F900895AF92BF92CF9237
:102D3000DF92EF92FF920F931F93CF93DF9300D018
:102D400000D0CDB7DEB78C01FC0186899789A08DB4
:102D5000B18D89839A83AB83BC83A12CB12C49812B
:102D60005A816B817C819E012F5F3F4FD801149661
:102D70008D919C9115970E949F098823C1F1D801DC
:102D80001496ED91FC9115978481A80EB11CA114A5
:102D9000B0E1BB0658F5C980DA80EB80FC808289FF
:102DA000803149F481E0E8EFCE16EFEFDE06E10472
:102DB000F10450F4D4CF81E0F8EFCF16FFEFDF0637
:102DC000EF06FFE0FF0658F2A50160E070E099E031
:102DD000440F551F661F771F9A95D1F7D801529659
:102DE0004D935D936D937C93559701C080E00F9058
:102DF0000F900F900F90DF91CF911F910F91FF9047
:102E0000EF90DF90CF90BF90AF900895CF93DF9376
:102E1000EC01FB018A81882311F080E03CC07D83B6
:102E20006C838289803109F18032B9F783E08A832B
:102E3000458956896789708D4E8B5F8B688F798F36
:102E4000CE010E949516882341F381E089831E827A
:102E50001F82188619861A861B861C861D861E866A
:102E60001F86188A198A1B8216C082E08A831E8AEE
:102E70001F8A188E198E4389548960E070E025E01E
:102E8000440F551F661F771F2A95D1F74A8B5B8B1E
:102E90006C8B7D8BDACFDF91CF9108950F931F93C9
:102EA000CF93DF93EC018A818823E1F1898187FF49
:102EB00033C061E0CE010E9483148C01009791F130
:102EC000FC018081853E71F18A81823040F44A891B
:102ED0005B896C897D89448F558F668F778F4E898A
:102EE0005F89688D798DF801538F428F758B648B64
:102EF000E091E904F091EA04309759F0B8016A5E74
:102F00007F4FC80148960995F801808D918D938B6C
:102F1000828B89818F778983DF91CF911F910F9168
:102F20000C94E40881E0888380E0DF91CF911F91C9
:102F30000F910895CF93DF93EC010E944E171A82F0
:102F4000DF91CF9108954F925F926F927F92AF92EF
:102F5000BF92CF92DF92EF92FF920F931F93CF9386
:102F6000DF9300D000D0CDB7DEB75C016A017B01F2
:102F7000FC0182818130F1F4818181FF1BC0F50168
:102F800082899389A489B58984179507A607B7070D
:102F900088F0892B8A2B8B2B09F479C0F5014284A8
:102FA000538464847584B701A601C5010E94FB1592
:102FB000811102C080E06CC0F50184819581C1144B
:102FC000D104E104F10471F446895789608D718D53
:102FD0000E94900B882371F3F501168A178A108ED0
:102FE000118E3AC0F50146815781608571859E0139
:102FF0002F5F3F4F0E949F098823E1F249815A8148
:103000006B817C81F50184819581FC0122892031CD
:1030100039F4483FFFEF5F0761057105E8F407C029
:10302000483F2FEF520762072FE07207A8F40E9473
:10303000900B882309F4BECFF50146815781608546
:1030400071850FEF1FEF2FEF3FE0848195810E9484
:10305000180A882309F4AECFF501C28AD38AE48A1C
:10306000F58A818180688183C5010E944E1788237B
:1030700009F4A0CFB701A6014C145D046E047F04CF
:1030800010F4B301A201C5010E94FB1501C081E04B
:103090000F900F900F900F90DF91CF911F910F9194
:1030A000FF90EF90DF90CF90BF90AF907F906F90A8
:1030B0005F904F900895BF92CF92DF92EF92FF9270
:1030C0000F931F93CF93DF93EC01B42E80E2689FA0
:1030D000F0011124E956FD4F8385817121F0842F81
:1030E000827109F04BC08091930290919402A0915B
:1030F0009502B09196028E879F87A88BB98B6B83C0
:103100000489158920E030E0980111270027C28C3E
:10311000D38CE12CF12C0C291D292E293F290E8B53
:103120001F8B288F398F8385887151F4048D158DFD
:10313000268D378D0A8B1B8B2C8B3D8B81E008C035
:103140008031E1F4CE010E9495168823B9F084E025
:103150008A838B2D8F7089831E821F821886198621
:103160001A861B861C861D86B4FE0BC040E050E00C
:10317000BA01CE010E94A317811103C01A8280E018
:1031800013C0B5FE10C04A895B896C897D89CE0168
:10319000DF91CF911F910F91FF90EF90DF90CF9033
:1031A000BF900C94FB1581E0DF91CF911F910F919F
:1031B000FF90EF90DF90CF90BF9008955F926F9255
:1031C0007F928F929F92AF92BF92CF92DF92EF92B7
:1031D000FF920F931F93CF93DF937C01EB016A0162
:1031E000622E8C819D81F7019583848340E050E0BD
:1031F000BA01CE010E94FB15712C4A855B856C8556
:103200007D858A899B89AC89BD89481759076A07DA
:103210007B0708F056C0CE010E94E41597FD9BC0C5
:103220000A851B852C853D8501501E4F2F4F3F4F32
:103230000A871B872C873D87809093029090940289
:10324000A0909502B090960207E912E0512CF80187
:103250008081882311F0853E79F4711006C0F70152
:1032600086869786A08AB18A5382F8018081772466
:103270007394811109C025C04BE050E0B801C6012C
:103280000E94501C892B39F05394005E1F4FF0E1CF
:103290005F12DDCFB2CF67FC5EC0462D652DC70142
:1032A000DF91CF911F910F91FF90EF90DF90CF9022
:1032B000BF90AF909F908F907F906F905F900C9495
:1032C0005B18862D8274823409F045C0772051F056
:1032D000F701538061E0C7010E948314EC0100975D
:1032E00059F439C08A818230B1F1CE010E9417149D
:1032F000009789F1EC01512C80E2FE0111928A9530
:10330000E9F78BE0F601DE0101900D928A95E1F775
:10331000E091E904F091EA04309739F0BE01625F70
:103320007F4FCE014096099508C081E298E2998BC3
:10333000888B80E098E09F878E87888999899B8B0E
:103340008A8B998F888F8E859F859F8B8E8B0E940D
:10335000E4088111A2CF80E0DF91CF911F910F91FE
:10336000FF90EF90DF90CF90BF90AF909F908F90A5
:103370007F906F905F9008953F924F925F926F920F
:103380007F928F929F92AF92BF92CF92DF92EF92F5
:10339000FF920F931F93CF93DF93CDB7DEB7C15446
:1033A000D1090FB6F894DEBF0FBECDBF5C016B0133
:1033B00022965FAF4EAF2297522E1B8E1D8E198222
:1033C0001B826115710511F480E077C0FC018281D8
:1033D0008111FACF2296EEADFFAD229780818F3218
:1033E00011F076011EC02296EEADFFAD22978081CE
:1033F0008F3231F431962296FFAFEEAF2297F3CFA2
:10340000F60182818250823060F3F6016481758119
:10341000CE0101960E9406178823B1F2CE010196D3
:103420007C018E01055E1F4F3801FE0131964F0170
:10343000402E312E1BC08823C1F121E0AE014B5C30
:103440005F4FB701C8010E94DE18882309F4BCCF82
:10345000EC14FD0419F0C7010E949A170615170510
:1034600009F1942D832D7801092F182FAE01405CAE
:103470005F4FBE016B5C7F4F22968EAD9FAD229752
:103480000E949B14882309F49FCF2296EEADFFADD6
:10349000229780818F3279F631962296FFAFEEAF78
:1034A0002297F3CF982D892DDECF252DAE014B5CD1
:1034B0005F4FB701C5010E94DE18CF5BDF4F0FB62B
:1034C000F894DEBF0FBECDBFDF91CF911F910F915A
:1034D000FF90EF90DF90CF90BF90AF909F908F9034
:1034E0007F906F905F904F903F900895FB01242F45
:1034F0006091EB047091EC04AF010C94BC192F9215
:103500003F924F925F926F927F928F929F92AF9273
:10351000BF92CF92DF92EF92FF920F931F93CF93C0
:10352000DF93CDB7DEB760970FB6F894DEBF0FBE5E
:10353000CDBF8C015B011A01DC0112968C911297B0
:103540008130C9F411968C9181FF15C082FF19C09A
:10355000F801428953896489758982859385A48598
:10356000B58584179507A607B70759F0C8010E94CB
:10357000FB15811106C081E0F80180838FEF9FEF7A
:103580002EC1710178C0D8011496ED91FC91159768
:1035900054805A94DB01CA0129E0B695A795979506
:1035A00087952A95D1F758226A01B1E0DB22552090
:1035B00009F46DC0D80116964D915D916D917C9185
:1035C000199714968D919C9115970E948709650D06
:1035D000711D811D911DC114D10409F4A0C020E00A
:1035E00032E02C193D0927012E153F0508F4290169
:1035F000C114D10409F098C0D8011A966D907D903D
:103600008D909C901D976D827E828F8298865296B7
:103610006D907D908D909C9055972D813E814F812E
:103620005885261537054805590508F47DC045E03D
:103630000E943309009709F49ECFA201B5018C0DB9
:103640009D1D0E945D1CC40CD51CC11432E0D30624
:1036500009F46CC0F80182859385A485B585840D35
:10366000951DA11DB11D82879387A487B587A40CE2
:10367000B51CE418F508D8011A964D915D916D912D
:103680007C911D97E114F10409F07DCF7BC0C1143A
:10369000D10409F08FCFD80116964D915D916D91AF
:1036A0007C911997411551056105710519F19E012C
:1036B0002F5F3F4FCF010E949F09882309F45BCF02
:1036C00089819A81AB81BC81F80124813581F9011E
:1036D0002289203139F4883FFFEF9F07A105B1050A
:1036E00090F417C0883F2FEF9207A2072FE0B20790
:1036F00080F009C0F80186899789A08DB18D009767
:10370000A105B10531F4C8010E94F113811152CF16
:1037100032CFF80186839783A087B1874BCFE1141E
:10372000B2E0FB0640F45BCF41E082CF0E94770914
:10373000811190CF20CF209193023091940240913B
:10374000950250919602261737074807590751F4FA
:1037500069877A878B879C870E9479099C858B85EE
:103760007A8569859501AB01BC01809190029091A9
:1037700091020E94C013882309F4FDCE412C82E0FF
:10378000582E68CF52968D919D910D90BC91A02D91
:10379000F801218184179507A607B70738F4428BF3
:1037A000538B648B758B206821830CC08091E90456
:1037B0009091EA04892B31F02114310419F020682A
:1037C000F8012183D80111968C9183FD02C0C101BB
:1037D00006C0C8010E944E178111F9CFCCCE609669
:1037E0000FB6F894DEBF0FBECDBFDF91CF911F9112
:1037F0000F91FF90EF90DF90CF90BF90AF909F9090
:103800008F907F906F905F904F903F902F90089592
:10381000CF93DF931F92CDB7DEB7698341E050E0CD
:10382000BE016F5F7F4F04960E947F1A21E030E057
:10383000019711F020E030E0C9010F90DF91CF91A6
:10384000089561E08AE00E94050461E08AE00E9438
:10385000CC0360E08CE00E94CC0361E08BE00E942E
:10386000CC0361E08DE00C94CC0392E080E09617ED
:1038700028F4863019F0990F8F5FF9CF982F906A4E
:1038800096959CBD80FD06C091E0863009F490E0DD
:10389000892F01C080E08DBD0895F8940C94CC1C54
:1038A000FB01DC0104C08D910190801921F441508D
:1038B0005040C8F7881B990B0895FB01DC0102C03A
:1038C00001900D9241505040D8F70895DC016C9161
:1038D00061546A3108F060526F596D93C1F70895D1
:1038E000FB0151915523A9F0BF01DC014D91451712
:1038F0004111E1F759F4CD010190002049F04D91BB
:1039000040154111C9F3FB014111EFCF81E090E077
:10391000019708950E94B71CA59F900DB49F900D2C
:10392000A49F800D911D11240895A1E21A2EAA1BB7
:10393000BB1BFD010DC0AA1FBB1FEE1FFF1FA2175F
:10394000B307E407F50720F0A21BB30BE40BF50B5C
:10395000661F771F881F991F1A9469F760957095E5
:10396000809590959B01AC01BD01CF010895A29F68
:10397000B001B39FC001A39F700D811D1124911D43
:10398000B29F700D811D1124911D0895EE0FFF1F30
:0C3990000590F491E02D0994F894FFCF0D
:10399C000000ED042000010032000000E4043C446F
:1039AC004F4F523E007472756D7065742E6D70338E
:1039BC00004661696C6564003C002F0073642E63E3
:1039CC00686469720000000000BE045E0664049125
:1039DC00047604B304747261636B253033642E6D0A
:1039EC00703300747261636B3030312E6D70330044
:1039FC00706174636865732E303533002E616163BA
:103A0C00002E776D61002E776176002E666C61005A
:103A1C002E6D69640000000000B6115E0600000007
:063A2C0000081C5E06000C
:00000001FF
